:100000000C9408020C9430020C9430020C943002D0
:100010000C9430020C9430020C9430020C94300298
:100020000C943E0F0C9430020C9430020C9430026D
:100030000C9430020C9430020C9430020C94300278
:100040000C947C0E0C9430020C94060F0C94E00E71
:100050000C9430020C9430020C9430020C94300258
:100060000C9430020C9430020000000023002600A3
:1000700029002A2A2A2A2A2A2A2A2A2A2A2A2A2A0B
:100080002A2A2A2A2A2A2A2A2A2A2A2A2A2A2A2AD0
:100090002A2A2A2A2A2A2A2A2A2A2A2A2A2A2A2AC0
:1000A0002A2A2A2A2A2A2A2A2A2A2A2A2A2A2A2AB0
:1000B0002A2A2A2A2A2A2A2A2A2A2A2A2A2A2A2AA0
:1000C0002A2A2A2A2A2A2A2A2A2A2A2A2A2A2A2A90
:1000D0002A2A2A2A005468616E6B7300206874749F
:1000E00070733A2F2F6769746875622E636F6D2F76
:1000F00041726475696E6F2D495272656D6F7465DA
:100100002F41726475696E6F2D495272656D6F74FF
:100110006523636F6E76657274696E672D796F758E
:10012000722D32782D70726F6772616D2D746F2D24
:100130007468652D34782D76657273696F6E004131
:1001400020677569646520686F7720746F20636F1E
:100150006E7665727420796F757220322E30207041
:10016000726F6772616D20697320686572653A000D
:100170002068747470733A2F2F6769746875622EE3
:10018000636F6D2F41726475696E6F2D4952726590
:100190006D6F74652F41726475696E6F2D4952726F
:1001A000656D6F7465236578616D706C65732D6620
:1001B0006F722D746869732D6C6962726172790057
:1001C000546865206578616D706C65732061726537
:1001D00020646F63756D656E746564206865726513
:1001E0003A0053746172742077697468207468658A
:1001F0002053696D706C6552656365697665722020
:100200006F722053696D706C6553656E6465722002
:100210006578616D706C652E004F7220646F776E2B
:10022000677261646520796F7572206C69627261B2
:10023000727920746F2076657273696F6E20322E2A
:10024000362E302E0020617661696C61626C65200B
:100250006174202246696C65203E204578616D708E
:100260006C6573203E204578616D706C6573206607
:10027000726F6D20437573746F6D204C696272618B
:1002800072696573202F20495272656D6F74652203
:100290002E00506C6561736520757365206F6E6507
:1002A000206F6620746865206E657720636F6465D3
:1002B000206578616D706C65732066726F6D207457
:1002C0006865206C6962726172792C005468697388
:1002D0002076657273696F6E206973206E6F206C73
:1002E0006F6E67657220737570706F7274656421CC
:1002F000004974207365656D732C207468617420E7
:10030000796F7520617265207573696E6720612051
:100310006F6C642076657273696F6E20322E3020A8
:10032000636F6465202F206578616D706C652E00A9
:100330005468616E6B20796F7520666F72207573DB
:10034000696E672074686520495272656D6F7465C7
:10035000206C69627261727921002A2A2A2A2A2A6B
:100360002A2A2A2A2A2A2A2A2A2A2A2A2A2A2A2AED
:100370002A2A2A2A2A2A2A2A2A2A2A2A2A2A2A2ADD
:100380002A2A2A2A2A2A2A2A2A2A2A2A2A2A2A2ACD
:100390002A2A2A2A2A2A2A2A2A2A2A2A2A2A2A2ABD
:1003A0002A2A2A2A2A2A2A2A2A2A2A2A2A2A2A2AAD
:1003B0002A2A2A2A2A2A2A2A2A2A2A2A0000000045
:1003C00000240027002A0000000000250028002B40
:1003D00000040404040404040402020202020203EE
:1003E00003030303030102040810204080010204F8
:1003F000081020010204081020000000080002017B
:1004000000000304070000000000000000006F0E61
:1004100011241FBECFEFD8E0DEBFCDBF23E0A6E1A1
:10042000B1E001C01D92A532B207E1F711E0A0E0F2
:10043000B1E0ECE6FFE102C005900D92A631B107F4
:10044000D9F712E0C8E0D2E004C02197FE010E9473
:10045000AE0FC730D107C9F70E94D70E0C94B40F66
:100460000C9400008330B1F060F08730E9F0883000
:1004700009F1843021F5E0E8F0E080818F7D808310
:100480000895813069F0823021F484B58F7D84BD78
:1004900008950895E0E8F0E080818F7780830895E3
:1004A00084B58F7784BD0895E0EBF0E080818F778D
:1004B00080830895E0EBF0E080818F7D8083089554
:1004C0001F93CF93DF93282F30E0F901E750FC4FC3
:1004D0008491F901EB51FC4F1491F901EF52FC4F5B
:1004E000C491CC23A9F0D62F811116C0EC2FF0E0D7
:1004F000EE0FFF1FE953FC4FA591B4918FB7F8940D
:10050000D1110DC09C91E12FE095E923EC938FBFB1
:10051000DF91CF911F9108950E943202E7CFEC91B5
:10052000E12BEC93F4CFCF93DF9390E0FC01EB5100
:10053000FC4F24918F529C4FFC018491882319F128
:1005400090E0880F991FFC01E354FC4FA591B491F2
:10055000FC01E953FC4FC591D491662349F0623008
:10056000A9F08FB7F894EC91E22BEC938FBF0BC0FE
:100570009FB7F8948C91E22FE0958E238C9388811D
:10058000E823E8839FBFDF91CF9108959FB7F89448
:100590003C91822F809583238C93E881E22BE88322
:1005A0009FBFF1CF789484B5826084BD84B58160AB
:1005B00084BD85B5826085BD85B5816085BDEEE66B
:1005C000F0E0808181608083E1E8F0E0108280814A
:1005D00082608083808181608083E0E8F0E08081B8
:1005E00081608083E1EBF0E0808184608083E0EBD8
:1005F000F0E0808181608083EAE7F0E080818460C0
:10060000808380818260808380818160808380811B
:10061000806880831092C10008950895EF92FF9240
:100620000F931F93CF93DF938C01FB01D0E0C0E0C9
:100630007F018FEFE81AF80A6491662369F0D80108
:10064000ED91FC910190F081E02DC8010995892B75
:1006500019F02196F701ECCFCE01DF91CF911F91D8
:100660000F91FF90EF900895CF92DF92EF92FF925B
:100670000F931F93CF93DF938C01DB01D0E0C0E099
:100680007A0181E0E81AF108452BA1F0F801808198
:100690009181FC01208131816D01FFEFCF1ADF0ACA
:1006A0006C91C801F9010995892B21F02196A701C8
:1006B000D601E6CFCE01DF91CF911F910F91FF9030
:1006C000EF90DF90CF900895019709F008956F3F64
:1006D0007F4FE1F7EFE7F2E01382128288EE93E0BA
:1006E000A0E0B0E084839583A683B78384E091E0A3
:1006F0009183808385EC90E09587848784EC90E0FB
:100700009787868780EC90E0918B808B81EC90E0DE
:10071000938B828B82EC90E0958B848B86EC90E0BF
:10072000978B868B118E128E138E148ECFCFFC0179
:10073000938D848D981720F4891B990B0197089548
:100740002FE330E0291B3109820F932F911D08956B
:10075000FC01918D828D981761F0A28DAE0FBF2F95
:10076000B11D5D968C91928D9F5F9F73928F90E0EB
:1007700008958FEF9FEF0895FC01918D828D98175A
:1007800031F0828DE80FF11D858D90E008958FEF97
:100790009FEF0895FC01218D30E0205C3F4F828D5A
:1007A000A901481B5109CA018F73992708958FE742
:1007B00092E00E94CA0321E0892B09F420E0822FF5
:1007C0000895CF92DF92EF92FF921F93CF93DF9322
:1007D000EC016A017B01122F60E079E08DE390E08B
:1007E000A70196010E94720F215031094109510958
:1007F0005695479537952795E889F98982E0808352
:10080000C11481EED806E104F10421F0211580E144
:10081000380798F0E889F989108260E874E88EE179
:1008200090E0A70196010E94720F21503109410901
:1008300051095695479537952795EC85FD85308369
:10084000EE85FF852083188EEC89FD891083EA8967
:10085000FB89808180618083EA89FB89808188604F
:100860008083EA89FB89808180688083EA89FB89AB
:1008700080818F7D8083DF91CF911F91FF90EF90DA
:10088000DF90CF900895FC01A48DA80FB92FB11D62
:10089000A35ABF4F2C91848D90E001968F7390786E
:1008A000848FA689B7892C93A089B1898C91837094
:1008B00080648C93938D848D981308950288F389B6
:1008C000E02D80818F7D8083F8CF0F931F93CF938E
:1008D000DF93EC0181E0888F9B8D8C8D9817B1F0B0
:1008E000062F8B8D90E001968F739078182F8C8D4A
:1008F00081131EC00FB607FCFACFE889F989808101
:1009000085FFF5CFCE010E944304F1CFE889F98934
:10091000808185FFE5CF9FB7F894EE89FF896083DA
:10092000E889F98980818370806480839FBF10C0CB
:10093000EB8DEC0FFD2FF11DE35AFF4F00839FB7A6
:10094000F8941B8FEA89FB898081806280839FBF36
:1009500081E090E0DF91CF911F910F910895CF93A7
:10096000DF93EC01888D811104C00DC00FB607FE26
:100970000DC0EA89FB89808185FDF8CFA889B989F6
:100980008C9186FFF3CFDF91CF910895808185FF11
:10099000F0CFE889F989808185FFEBCFCE010E94F5
:1009A0004304E7CF80E090E0892B21F00E94D70339
:1009B000811101C008950E940000FCCFFC01AB0131
:1009C000445151099A01A5E4BAE70E949F0F9695F8
:1009D0008795929582958F7089279F708927E81750
:1009E000F90790F0ADECBCEC0E949F0F96958795AF
:1009F000929582958F7089279F70892701968E170F
:100A00009F0720F480E0089580E0089581E0089534
:100A1000FC01AB014C5E5F4F9A01A5E4BAE70E946E
:100A20009F0F96958795929582958F7089279F70D5
:100A30008927E817F90790F0ADECBCEC0E949F0FF6
:100A400096958795929582958F7089279F708927B3
:100A500001968E179F0720F480E0089580E00895A6
:100A600081E008952F923F925F926F928F929F92B2
:100A7000AF92BF92CF92DF92EF92FF920F931F93AC
:100A8000CF93DF9300D000D0CDB7DEB7FB01168542
:100A90001A3108F482C0E484F584D7012D913C9189
:100AA00011972A303105B8F07A8369831C0160E61A
:100AB00079E012968D919C910E940805582E88230A
:100AC00009F46CC0E2E0F0E0FC83EB83612C812C44
:100AD000912C540124C010860FEF1FEF980104835E
:100AE00015832683378321E0FC0122A727E130E02C
:100AF000318320835524539451C068E572E0C601C8
:100B00000E940805882309F461C0880C991CAA1C5E
:100B1000BB1C8B819C8102969C838B836394CB80CE
:100B2000DC80FFEFCF1ADF0A1C151D0421F118F13C
:100B3000EB81FC81EE0FFF1FEE0DFF1D68E572E0FB
:100B4000808191810E94DE048823F1F1CC0CDD1CB0
:100B5000F701EC0DFD1DC080D18060EB74E0C60193
:100B60000E940805882349F2880C991CAA1CBB1C0A
:100B7000689480F8CECFA981BA8118966C921897A4
:100B8000FD0184829582A682B78287E190E09183FD
:100B90008083D1018D939C9301C0512C852D0F90A2
:100BA0000F900F900F90DF91CF911F910F91FF90B9
:100BB000EF90DF90CF90BF90AF909F908F906F900D
:100BC0005F903F902F900895582EE8CF582EE6CF93
:100BD000AC019B01A5E4BAE70E949F0F969587950B
:100BE000929582958F7089279F708927481759079A
:100BF00090F0ADECBCEC0E949F0F96958795929576
:100C000082958F7089279F70892701968417950791
:100C100020F480E0089580E0089581E00895FC01CB
:100C200084A595A58617970718F482A5816082A7E9
:100C300008958AE0849F9001859F300D1124CB0197
:100C4000880F991F880F991F880F991F2817390738
:100C500088F02AE0269FC001279F900D1124440FA1
:100C6000551F440F551F440F551F8417950720F437
:100C700082E0089580E0089581E00895AF92BF92E8
:100C8000CF92DF92EF92FF920F931F93CF93DF9358
:100C9000FB01A684F5E0FA1508F04EC0EB018C01CB
:100CA0000F2EF3E0BF2EF02D0F2EF5ECCF2EFDE929
:100CB000DF2EFCE1EF2EF1E8FF2EF02DBA1428F51F
:100CC0008C859D852B2D30E0F901EE0FFF1FE80F7D
:100CD000F91F4081518122503048220F331F280FC5
:100CE000391FF90160817181C8010E941906E82F3E
:100CF000A701960163E971E080E091E00E94620F34
:100D00006B017C01CE26B394D9CFCC82DD82EE82FA
:100D1000FF8280E2888719821882F801118210828E
:100D200081E0DF91CF911F910F91FF90EF90DF90C5
:100D3000CF90BF90AF90089580E0F3CFAF92BF9275
:100D4000CF92DF92EF92FF921F93CF93DF93DC015C
:100D50009B962C919B97C091F201C21708F061C03D
:100D60001C2F1170D0911C01D11120C09E96ED91C5
:100D7000FC91EC0FF11DE584F12C112339F10F2EBC
:100D8000F4E1AF2EB12CF02DC0901A01D0901B01D0
:100D9000B6016A0D7B1DC7010E94E8058823E9F0B2
:100DA00081E090E09093190180931801DF5FD09368
:100DB0001C018091180190911901D817190690F122
:100DC00010921C01CF5FC093F2012CC00F2EFCEEDD
:100DD000AF2EBB24BA94F02DD7CFB601660F771F84
:100DE0006A0D7B1DC7010E94E805882339F082E067
:100DF00090E09093190180931801D8CFB601660F47
:100E0000771F6C0D7D1D6A0D7B1DC7010E94E805D3
:100E1000882399F083E090E0909319018093180162
:100E2000C5CF10E0812FDF91CF911F91FF90EF9000
:100E3000DF90CF90BF90AF9008951FEFF3CF6093F6
:100E4000F20150931B0140931A0110921C01089566
:100E50008F929F92AF92BF92EF92FF920F931F9348
:100E6000CF93DF938C01FC01E6A4F7A4F7018685FC
:100E700068E67AE090E00E940805C82F882351F0C8
:100E8000F701878568E773E090E00E94DE04C82FD1
:100E900081110CC08C2FDF91CF911F910F91FF908A
:100EA000EF90BF90AF909F908F9008954CEB51E0E2
:100EB00063E0C8010E941F07C8010E949E0681309E
:100EC00011F0C0E0E7CFC8010E949E06811175C0F5
:100ED000812C912C5401D0E018C0C8010E949E06BC
:100EE0008F15F9F0C0E0D6CFC8010E949E068E157E
:100EF000F1F0C0E0CFCFF11062C081E0E81261C034
:100F0000880C991CAA1CBB1CDF5FF80193A580917B
:100F1000F2018917C0F4C8010E949E06F82ED33052
:100F2000E1F2C8010E949E06E82ED330E9F2F1E01A
:100F3000FF12E1CFE110DFCF880C991CAA1CBB1C6B
:100F4000689480F8E1CF8D2F90E091A780A78086EC
:100F50009186A286B386D432A8F480E882A7882D31
:100F600090E095838483892D90E093838283A0FE13
:100F700002C088E882A7D53190F0F80182A580618F
:100F800082A70DC080E882A7892D99209CF08F77D9
:100F9000912CF8019582848290E09383828363E7A9
:100FA0007AE0C8010E940F0682E190E0F801918387
:100FB000808370CF98E892A7EACFC0E06BCFC0E003
:100FC00069CFC0E067CFCF92DF92EF92FF920F938D
:100FD0001F93CF93DF93EC0149E753E061E00E9458
:100FE0001F07CE010E949E06813051F080E0DF9104
:100FF000CF911F910F91FF90EF90DF90CF900895C8
:10100000C12CD12C760100E00AC0113009F052C089
:10101000811152C0CC0CDD1CEE1CFF1C0F5F9BA588
:101020008091F201891790F4CE010E949E06182F3C
:10103000CE010E949E061111E8CF813031F7CC0C11
:10104000DD1CEE1CFF1C6894C0F8E8CF10E019A767
:1010500008A7C886D986EA86FB868C2D8F7390E018
:101060009D838C8396010024220F331F001C220FC6
:10107000331F001C232F302D2F7133273B832A83EE
:10108000960122273071232B21F4805C9F4F9D8392
:101090008C8380E88AA7D3FE02C088E88AA781E112
:1010A00090E0998388836FEC79E0CE010E940F066F
:1010B00081E09DCF80E09BCF80E099CF2F923F923F
:1010C0004F925F926F927F928F929F92AF92BF9258
:1010D000CF92DF92EF92FF920F931F93CF93DF9304
:1010E00000D000D000D0CDB7DEB79A838983D62E4A
:1010F00019011C830B83FC0106A4F7A5E02D50E029
:10110000435F5F4FE40FF51FFE83ED83812C912C2D
:1011100054018394412C512C320118C00D811E8141
:101120000E5F1F4FED81FE8181816B817C8190E09C
:101130000E94DE041E830D831BC0482859286A289C
:101140007B28880C991CAA1CBB1CDA94DD20E9F0D2
:101150002E143F0419F3ED81FE818081B10190E0EE
:101160000E9408052D813E812E5F3F4F3E832D83D7
:10117000CC2021F0440C551C661C771C882309F3F5
:10118000CC20D9F2689440F8DCCFE981FA8140861E
:1011900051866286738681E026960FB6F894DEBF8C
:1011A0000FBECDBFDF91CF911F910F91FF90EF90B8
:1011B000DF90CF90BF90AF909F908F907F906F9077
:1011C0005F904F903F902F900895AF92BF92CF9233
:1011D000EF92FF920F931F93CF93DF935C01EB018C
:1011E0000C851D8560E871E1F801828193810E9480
:1011F0000805882329F1FE84F4E0FF122BC06AEC75
:1012000078E0F801848195810E94DE04882311F141
:1012100060E372E0F801868197810E9408058823C7
:10122000C9F018864FEF5FEFBA014C835D836E8380
:101230007F8391E0F50192A723E130E031832083A1
:10124000DF91CF911F910F91FF90EF90CF90BF90C2
:10125000AF900895F3E4FF1550F560E871E1F801EF
:10126000848195810E94DE04882351F3CC24C394A9
:10127000F12CE12C00E916E020E332E043E060E2EB
:10128000C5010E945E088823D9F2F5014085518589
:10129000628573854C835D836E837F8390E298873C
:1012A00023E130E03983288331832083C9CF80E074
:1012B000C7CFAF92BF92CF92EF92FF920F931F933F
:1012C000CF93DF935C01EB010C851D8560E073E239
:1012D000F801828193810E940805882341F0FE84F1
:1012E000F4E0FF1671F0F4E4FF1671F180E0DF9195
:1012F000CF911F910F91FF90EF90CF90BF90AF9043
:10130000089560EC78E0F801848195810E94DE0404
:10131000882349F360E372E0F801868197810E9497
:101320000805882301F318864FEF5FEFBA014C835D
:101330005D836E837F83F50192A5916092A728E07B
:1013400030E031832083D3CF60E871E1F8018481FC
:1013500095810E94DE04882351F2CC24C394F12CA1
:10136000E12C00E916E020E332E043E060E2C50151
:101370000E945E08882309F4BACFEC85FD85EA5700
:10138000FF4F60E372E0808191810E94080588230D
:1013900009F4ADCFF50140855185628573854C8395
:1013A0005D836E837F8390E2988728E030E0398305
:1013B0002883318320839BCFAF92BF92CF92EF924D
:1013C000FF920F931F93CF93DF935C01FB019685F0
:1013D0009C3359F080E0DF91CF911F910F91FF90E6
:1013E000EF90CF90BF90AF900895EB0104851585E5
:1013F00068E273E2F801828193810E9408058823E4
:1014000051F368E670E1F801848195810E94DE0461
:10141000882309F3CC24C394F12CE12C0CE216E0D0
:1014200024EF31E043E06CE1C5010E945E088823AF
:1014300091F2EC85FD85EA58FF4F64EF71E0808101
:1014400091810E940805882331F2F501408551857C
:10145000628573854C835D836E837F839CE198876F
:1014600026E030E03983288331832083B4CFAF92E4
:10147000BF92CF92EF92FF920F931F93CF93DF9380
:101480005C01EB011E85123209F448C0EC84FD8436
:1014900060EE70E2F701828193810E940805882343
:1014A00009F46BC0143208F467C060E770E1F7011B
:1014B000848195810E94DE04882309F45EC0CC24D7
:1014C000C394F12CE12C0AE216E02EE032E043E076
:1014D00060E1C5010E945E08882309F44EC0EC85D6
:1014E000FD85EA5BFF4F6EE072E0808191810E9492
:1014F0000805882309F441C0F501408551856285BE
:1015000073854C835D836E837F8390E1988725E0AC
:1015100030E039832883318320832FC0EC84FD841D
:101520006EE072E0F701828193810E9408058823B2
:1015300009F4ACCF812F90E081509048880F991F1B
:10154000E80EF91E6EE072E0F701808191810E9441
:101550000805882309F49ACF18864FEF5FEFBA0188
:101560004C835D836E837F8391E0F50192A725E034
:1015700030E03183208301C080E0DF91CF911F9163
:101580000F91FF90EF90CF90BF90AF900895AF92E2
:10159000BF92CF92EF92FF920F931F93CF93DF935F
:1015A000FC0123A5223209F041C05B01EC01FB01E3
:1015B0000485158564E071E0F801828193810E94C1
:1015C0000805882349F16CE073E0F8018481958176
:1015D0000E94DE04882301F1CC24C394F12CE12C79
:1015E0000CE117E024E031E043E06FE0CE010E941F
:1015F0005E08882389F0488559856A857B85F501D1
:1016000044835583668377839FE0908724E030E0AE
:101610003183208339832883DF91CF911F910F91EC
:10162000FF90EF90CF90BF90AF90089580E0F4CFFF
:1016300080911D01833009F0089510921D01FCCFA7
:10164000EF92FF920F931F93CF93DF93EB012091C3
:101650001D01233049F0D0E08D2FDF91CF911F91F4
:101660000F91FF90EF900895EC85FD852091280162
:10167000309129013183208321E030E0283C31057D
:1016800094F4EC85FD85A901440F551FE40FF51F67
:10169000D901A35EBE4F1D964C9150E0518340830B
:1016A0002F5F3F4FEBCFEDE1F1E022852E872185C3
:1016B000222311F0118612867E018C018091260171
:1016C0008F871C821D821E821F8280E8F80182A7FC
:1016D000BE01C8010E945909D82F8111BDCFB701A1
:1016E000C8010E943205D82F8111B6CFC8010E94CF
:1016F000E307D82F882399F0F80180A5F7018087A8
:10170000F80180859185A285B385F701848395834F
:10171000A683B78381E190E0918380839DCFC80148
:101720000E942807D82F882399F0F80180A5F70197
:101730008087F80180859185A285B385F701848330
:101740009583A683B78382E190E09183808384CFE1
:10175000B701C8010E94DC09D82F81117DCFB701E4
:10176000C8010E94370AD82F811176CFB701C8016E
:101770000E94E508D82F81116FCFB701C8010E94E0
:10178000C70AD82F811168CFB701C8010E943E0651
:10179000D82F811161CFC8010E94180B5DCF82E064
:1017A0008093B0008093B10084E68093B30080936F
:1017B000B4001092B200089584E080937000089500
:1017C000CF93DF93EC010E94CF0BCE010E94180B48
:1017D0000E94DC0BDF91CF9108950E94E00B0895E9
:1017E000DF92EF92FF920F931F93CF93DF93CDB7CA
:1017F000DEB7A1970FB6F894DEBF0FBECDBF7C0158
:10180000CB01BA01D22E19A221E02D1520F48E01B0
:101810000F5D1F4F0EC00F2EFAE0DF2EF02DF7CF19
:10182000E95CD801EE938D01611571058105910583
:1018300079F02D2D30E050E040E00E94720FE62F4D
:10184000622F732F842F952FEA3054F7E05DE9CF94
:101850001097F9F0FD0101900020E9F73197AF01F1
:101860004A1B5B0BD701ED91FC910280F381E02DC7
:10187000B801C7010995A1960FB6F894DEBF0FBE57
:10188000CDBFDF91CF911F910F91FF90EF90DF902F
:10189000089590E080E0EFCF2115310549F4DC0197
:1018A000ED91FC910190F081E02D642F0995089550
:1018B0000E94F00B0895DC01ED91FC910280F38110
:1018C000E02D42E050E062E171E0099508950F9348
:1018D0001F93CF93DF93EC010E944C0C8C01CE013F
:1018E0000E945B0C800F911FDF91CF911F910F9190
:1018F00008950F931F93CF93DF93EC010E940E0383
:101900008C01CE010E945B0C800F911FDF91CF9163
:101910001F910F9108950F931F93CF93DF93EC01C5
:101920008B018091F301882349F0B801CE010E9418
:10193000200BDF91CF911F910F9108956AE573E01D
:101940008FE792E00E94790C60E373E08FE792E00A
:101950000E94790C61EF72E08FE792E00E94790CAF
:101960006CEC72E08FE792E00E94790C62E972E021
:101970008FE792E00E94790C65E472E08FE792E0D5
:101980000E94790C69E172E08FE792E00E94790C85
:101990008FE792E00E945B0C62EE71E08FE792E0CD
:1019A0000E94790C8FE792E00E945B0C60EC71E082
:1019B0008FE792E00E94790C60E771E08FE792E098
:1019C0000E94790C6FE371E08FE792E00E94790C3E
:1019D0006CED70E08FE792E00E94790C8FE792E067
:1019E0000E945B0C65ED70E08FE792E00E94790C3D
:1019F00062E770E08FE792E00E94790C8FE792E057
:101A00000E945B0C8FE792E00E945B0C81E0809368
:101A1000F3018BCF64EF71E084E092E00E948B0CC5
:101A2000811101C008954091F8015091F901609130
:101A3000FA017091FB0120E130E08FE792E00E9413
:101A4000670C84E092E00E94180BECCF862FADE18A
:101A5000B1E011966C931197262F30E0F901EB510C
:101A6000FC4FE4911496EC931497F901EF52FC4F5C
:101A7000E491F0E0EE0FFF1FE859FF4F25913491FC
:101A800013963C932E93129760E00E949302089560
:101A9000882361F080911601882321F061E00E9483
:101AA0006002089585B1806285B90895809116011C
:101AB000882321F060E00E946002089585B18F7D47
:101AC00085B90895CF93EDE1F1E0A281B381CC9186
:101AD0008481C82385819681019629F0858196812C
:101AE00001969683858380911D0181111EC0C111CD
:101AF00015C08091220190912301813A910550F007
:101B0000EDE1F1E01186858196819487838781E0FC
:101B10008287808310922301109222018091170105
:101B2000813009F478C0CF91089580911D018130F2
:101B300079F080911D01823031F180911D01833057
:101B400069F7C111EBCF1092230110922201E6CF69
:101B5000CC2321F3ADE1B1E015968D919C911697C0
:101B60001A96EC911A9791E09E0F1A969C931A97E9
:101B7000F0E0E35EFE4F858782E08C9316961C9220
:101B80001E921597CBCFC11127C0E0912701E83CE9
:101B900068F0EDE1F1E081E0818783E080830780F8
:101BA000F085E02D309799F0099511C0ADE1B1E0D5
:101BB00015968D919C91169791E09E0F1A969C9385
:101BC0001A97F0E0E35EFE4F858781E08C931092D8
:101BD000230110922201A2CF809122019091230132
:101BE000813A910508F49ACFEDE1F1E0838594857F
:101BF000A4E4B2E09D969C938E939C9782859B96DD
:101C00008C9383E080830780F085E02D309709F482
:101C100085CF099583CFC11180E00E94480D83CF05
:101C200080931601662371F0E6E1F1E09181692B62
:101C30006183882321F061E00E949302089584B1BA
:101C4000806284B90895FC01108260E080E00E9407
:101C5000100E08952DE131E0FC0137A726A70E9460
:101C6000260D60E080E00E94100E08952DE131E025
:101C7000FC0137A726A760E00E94260D60E080E007
:101C80000E94100E0895019709F008956F3F7F4F4D
:101C9000E1F784E492E00E94360E8FE392E00E9426
:101CA000230E67E084E092E00E942A0EEECF80913E
:101CB00016010E94100E089526E040E855E260E00B
:101CC00070E08FE792E00E94E10384E092E00E94DE
:101CD000ED0B61E084E092E00E94570E08956FEFF3
:101CE0007FEF81E090E00E9464036FEF7FEF81E07F
:101CF00090E00E94430E08951F920F920FB60F922C
:101D000011240F931F932F933F934F935F936F93E0
:101D10007F938F939F93AF93BF9300912103109173
:101D20002203209123033091240390912003B901D1
:101D3000A8014F5F5F4F6F4F7F4F83E0890F8D3753
:101D400040F086E8890FB901A8014E5F5F4F6F4FE1
:101D50007F4F80932003409321035093220360938D
:101D600023037093240380911C0390911D03A09181
:101D70001E03B0911F030196A11DB11D80931C038A
:101D800090931D03A0931E03B0931F03BF91AF91C7
:101D90009F918F917F916F915F914F913F912F9183
:101DA0001F910F910F900FBE0F901F9018950E94DA
:101DB000D2020E945C0E0E940A0D0E94D204FBCF48
:101DC0001F920F920FB60F9211242F933F934F93B0
:101DD0005F936F937F938F939F93AF93BF93EF9393
:101DE000FF938FE792E00E944304FF91EF91BF9130
:101DF000AF919F918F917F916F915F914F913F91A3
:101E00002F910F900FBE0F901F9018951F920F9259
:101E10000FB60F9211242F938F939F93AF93BF937D
:101E2000EF93FF93E0918F02F0919002808182FD09
:101E300014C0EFE7F2E0A689B7892C91818D8F5FFE
:101E40008F73928D891771F0DF01E18DF0E0E15819
:101E5000FD4F258F59968C9305C0E0919502F09126
:101E600096028081FF91EF91BF91AF919F918F91E9
:101E70002F910F900FBE0F901F9018951F920F92E9
:101E80000FB60F9211242F933F934F935F936F934D
:101E90007F938F939F93AF93BF93EF93FF930E9492
:101EA000620DFF91EF91BF91AF919F918F917F91C3
:101EB0006F915F914F913F912F910F900FBE0F90B7
:101EC0001F901895DB018F939F930E94940FBF91F1
:101ED000AF91A29F800D911DA39F900DB29F900D79
:101EE00011240895A1E21A2EAA1BBB1BFD010DC0EF
:101EF000AA1FBB1FEE1FFF1FA217B307E407F507BA
:101F000020F0A21BB30BE40BF50B661F771F881F95
:101F1000991F1A9469F760957095809590959B012B
:101F2000AC01BD01CF0108950E949F0FA59F900DA8
:101F3000B49F900DA49F800D911D11240895A29F20
:101F4000B001B39FC001A39F700D811D1124911D8D
:101F5000B29F700D811D1124911D0895EE0FFF1F7A
:0C1F60000590F491E02D0994F894FFCF57
:101F6C0000000000650434039703AF04CA03A80300
:061F7C00BC030D0A000089
:00000001FF
